:020000040000FA
:10000000600200201D0300002503000027030000FC
:10001000290300002B0300002D0300000000000056
:100020000000000000000000000000002F0300009E
:10003000310300000000000033030000350300001E
:1000400037030000390300003B0300003D030000BC
:100050003F0300004103000043030000450300008C
:1000600047030000490300004B0300004D0300005C
:100070004F0300005103000053030000550300002C
:1000800057030000590300005B0300005D030000FC
:100090005F030000610300006303000065030000CC
:1000A00067030000690300006B0300006D0300009C
:1000B0006F0300007103000073030000750300006C
:1000C00077030000790300007B0300007D0300003C
:1000D0007F0300008103000083030000850300000C
:1000E0008703000089030000000000008B0300006C
:1000F0008D0300008F0300009103000093030000B4
:100100009503000097030000990300009B03000083
:1001100000000000000000009D0300009F0300009D
:10012000A1030000A3030000A5030000A703000033
:10013000A9030000DD050000AD030000AF030000CF
:1001400000000000000000000000000000000000AF
:10015000B1030000B3030000B5030000B7030000C3
:10016000000000000000000000000000000000008F
:10017000000000000000000000000000000000007F
:10018000000000000000000000000000000000006F
:10019000000000000000000000000000000000005F
:1001A000000000000000000000000000000000004F
:1001B000B9030000BB030000BD030000BF03000043
:1001C000C1030000C3030000C5030000C703000013
:1001D000C9030000CB030000CD030000CF030000E3
:1001E000D1030000D3030000D5030000000000008D
:1001F00000000000D7030000D9030000DB0300006B
:10020000DD030000DF03000000000000000000002C
:10021000E1030000E3030000E5030000E703000042
:10022000E9030000EB030000ED030000EF03000012
:10023000F1030000F3030000F5030000F7030000E2
:10024000F9030000FB030000FD030000FF030000B2
:10025000010400000304000005040000070400007E
:10026000090400000B0400000D04000000F002F877
:1002700000F044F814A696E8000CB244B344DA4502
:1002800001D100F03BF8BAE80F000FA696E8300065
:10029000A5EB040504EB0607AAEB0704A7F1010789
:1002A0004FEA15154FEA3414A4F10104AC4201D30E
:1002B00000F024F813F0010F18BFFB1A43F00103FC
:1002C00000F001F8DBE71847C8040000D80400007C
:1002D000704700000023002400250026103A28BFA4
:1002E00078C1FBD8520728BF30C148BF0B607047A8
:1002F0001FB500F03FFA1FBD10B510BD00F09BF810
:100300001146FFF7F5FF00F0CBF900F0B9F803B4A0
:10031000FFF7F2FF03BC00F0C1F800003F48804740
:100320003F480047FEE7FEE7FEE7FEE7FEE7FEE7A1
:10033000FEE7FEE7FEE7FEE7FEE7FEE7FEE7FEE795
:10034000FEE7FEE7FEE7FEE7FEE7FEE7FEE7FEE785
:10035000FEE7FEE7FEE7FEE7FEE7FEE7FEE7FEE775
:10036000FEE7FEE7FEE7FEE7FEE7FEE7FEE7FEE765
:10037000FEE7FEE7FEE7FEE7FEE7FEE7FEE7FEE755
:10038000FEE7FEE7FEE7FEE7FEE7FEE7FEE7FEE745
:10039000FEE7FEE7FEE7FEE7FEE7FEE7FEE7FEE735
:1003A000FEE7FEE7FEE7FEE7FEE7FEE7FEE7FEE725
:1003B000FEE7FEE7FEE7FEE7FEE7FEE7FEE7FEE715
:1003C000FEE7FEE7FEE7FEE7FEE7FEE7FEE7FEE705
:1003D000FEE7FEE7FEE7FEE7FEE7FEE7FEE7FEE7F5
:1003E000FEE7FEE7FEE7FEE7FEE7FEE7FEE7FEE7E5
:1003F000FEE7FEE7FEE7FEE7FEE7FEE7FEE7FEE7D5
:10040000FEE7FEE7FEE7FEE7FEE7FEE7FEE70000A9
:1004100004480549034A054B70470000D104000019
:100420006D020000600000206002002060000020DB
:10043000704770477047754600F02CF8AE460500CF
:100440006946534620F00700854618B020B5FFF7EF
:10045000DFFFBDE820404FF000064FF000074FF0EF
:1004600000084FF0000BAC46ACE8C009ACE8C0098E
:10047000ACE8C009ACE8C00921F007018D4670471F
:1004800010B50446AFF300802046BDE81040FFF7EA
:100490003EBF0000004870470000002001491820BE
:1004A000ABBEFEE7260002007047000082B001905C
:1004B000002000900090FFE700980199884205D243
:1004C000FFE7FFE7009801300090F5E702B07047C2
:1004D00081B04EF68851CEF20001086840F47000F9
:1004E00008604EF27001C4F20F0142F61000C0F233
:1004F000807008604EF26002C4F20F0243F6D12011
:10050000C0F28E70106042F64250C0F29E10106031
:1005100042F60000C0F28010086000200090FFE763
:100520000098C0087C2805D8FFE7FFE70098013055
:100530000090F5E74EF26001C4F20F0140F6425020
:10054000C0F29E1008604EF27001C4F20F0140F636
:100550000000C0F28010086000200090FFE70098C3
:10056000C0087C2805D8FFE7FFE70098013000901D
:10057000F5E74EF26001C4F20F0140F64250C0F2BE
:10058000DE100860FFE74EF25000C4F20F00006872
:1005900000F04000402801D0FFE7F4E74EF2600190
:1005A000C4F20F0140F24250C0F2DE1008604EF279
:1005B0007001C4F20F014FF0C0700860002000907D
:1005C000FFE7009842F20F71884205D8FFE7FFE786
:1005D000009801300090F4E701B0704780B582B018
:1005E00000208DF8070041F24401C4F201010868BF
:1005F00020F01000086041F20000C4F20100006821
:100600008DF807009DF8070061280BDBFFE79DF8D8
:1006100007007A2806DCFFE79DF8070020388DF8F0
:1006200007001EE09DF80700412815DBFFE79DF855
:1006300007005A2810DCFFE79DF807005A2804D16C
:10064000FFE741208DF8070005E09DF80700013025
:100650008DF80700FFE703E030208DF80700FFE783
:10066000FFE79DF8070000F003F802B080BD00002E
:1006700081B08DF80300FFE741F21800C4F20100D9
:1006800000688006002801D5FFE7F5E79DF8030024
:1006900041F20001C4F20101086001B0704700009E
:1006A00080B582B00020009001904EF21861C4F233
:1006B0000F01086840F0200008604EF20861C4F2A3
:1006C0000F01086840F0100008600120FFF7EEFEFF
:1006D000009841F23002C4F20102106041F224039A
:1006E000C4F201036821196041F22803C4F2010336
:1006F0000B21196041F6C871C4F20101086041F292
:100700002C03C4F201036021196040F20131116031
:1007100044F21C52C4F202023021116044F2204221
:10072000C4F20202116044F22851C4F202010860CE
:1007300044F22C51C4F202014FF48810086041F2D7
:100740004401C4F20101086820F01000086041F281
:100750003801C4F20101102008604EF20411CEF2FB
:100760000001086840F0005008600A20FFF79EFE74
:10077000FFE7FEE7F1EE100A4FF6FF71C0F2C0315D
:1007800020EA010040F04070E1EE100A70470000DE
:10079000A00700000000002060020000D40200005A
:040000050000031DD7
:00000001FF
